:100000000C94A70C0C94CF0C0C94CF0C0C94CF0C2C
:100010000C94EC230C94CF0C0C94D5230C94CF0CA3
:100020000C94CF0C0C94CF0C0C94CF0C0C94CF0CE4
:100030000C94CF0C0C94CF0C0C94CF0C0C94CF0CD4
:100040000C9470220C94CF0C0C94CF0C0C94CF0C0D
:100050000C94CF0C0C94CF0C0C94CF0C0C94CF0CB4
:100060000C94BA220C94CF0C000000001500010083
:100070000004161508EB0B000B0A1505EC19000E11
:10008000181503EB43000D1A1504EA6E000F151541
:1000900003EC96000C121504EFB100040A1508ECED
:1000A000B6000519150AECC60005191506ECD600B0
:1000B0000D0C1504ECEA000F111503EF0A01070AF5
:1000C0001505FC13010F011503F7150105051508AA
:1000D000FC19010D1A1504EA44010D151504EC670D
:1000E000010D151504EC8A010D151503ECAD010E7B
:1000F000151503ECD2010C151504ECF2010E1515C3
:1001000003EC17020C151505EC37020C151504EC61
:1001100057020D151504EC7A020C151505EC9A0220
:10012000050F1508F2A40207141505F2B6020F1008
:100130001503EFD40211061502F4E1020F101503A6
:10014000EFFF020C141505ED1D030D171504EC430C
:100150000315141500ED780312141501EDA5031114
:10016000141502EDD00310141502EDF80311141547
:1001700001ED230411141501ED4E0411141502EDC7
:10018000790410141502EDA1040D141504EDC20438
:1001900011141503EDED0412141501ED1A050F14D9
:1001A0001503ED400513141501ED7005121415012A
:1001B000ED9D0511141502EDC80510141501EDF0A3
:1001C0000511181502ED230613141501ED53060E43
:1001D000141503ED76060F141503ED9C0611141586
:1001E00002EDC70615141500EDFC0613141501EDFC
:1001F0002C0713141501ED5C0711141502ED870788
:100200000D141504EDA8070519150AECB8070D1A09
:100210001504EAE30705191506ECF3070D091504A3
:10022000EC02081501150004050806051505EB0983
:1002300008100F1503F2270812151501EC57080FC7
:100240000F1503F2740812151502ECA408100F150F
:1002500002F2C2080E151504ECE70811161502F299
:10026000160911151501EC43090E161504EB6A0960
:100270000A1D1505EB8F0910151502ECB9090E15AD
:100280001504ECDE09130F1501F2020A110F150116
:10029000F2220A0F0F1503F23F0A12161501F2712E
:1002A0000A12161502F2A30A0F0F1503F2C00A0D67
:1002B0000F1504F2D90A10141501ED010B110F15D9
:1002C00001F2210B130F1501F2450B130F1501F26B
:1002D000690B110F1502F2890B11161502F2B80BFA
:1002E0000D0F1504F2D10B08191506ECEA0B0119D4
:1002F000150AECEE0B08191507EC070C0F05150392
:10030000F52777777777222220006FF6F1FE3FC737
:10031000F8FF1EC398330660CC18042010804201F9
:1003200008042010804201100441FFF0440210082C
:1003300040210FFFC2100840210084021008402312
:100340000088022002001000801FA3071009004847
:10035000004003000C003C001E0018002001800C2F
:10036000007005E0C9F80100080040020010001EFE
:100370000042010202040408081008400F00001E99
:1003800001F01F01E00E00003C0086020604040894
:1003900008103010C01E000FC10020020020020013
:1003A0001001000803C06C3C6282683481CC086193
:1003B000C3E7FFFFF6666608C462318CC6318C6302
:1003C00018C318C218C3188610C218C610C6318CBC
:1003D00063188C623198800200100080040C219D0B
:1003E000701C00A00D80C6041040800100020004B3
:1003F00000080010002000400080FFFE0200040002
:1004000008001000200040008001003E78F3C78EF5
:100410001870C180FFFE77FFF700000800C00400DD
:100420006002003001001800800C00400200200132
:1004300000100080080040040020020010010008A5
:1004400000800400000F81820808802401600E00F3
:100450003001800C006003001800C006003003402B
:100460001200880860C0F80006007006806406204C
:100470003100080040020010008004002001000844
:1004800000400200100080040FFF800F80C30804AA
:100490008024008004002002001001001001801858
:1004A00001801801801801805803801FFF800FC051
:1004B000C0860100020008002000800400200F0018
:1004C000060004000800100040010004002C019CFC
:1004D0000C0FC001C0140240640440C408418410E1
:1004E0004204204404404804FFF00400400400405B
:1004F0000407F03FF0800200080020008002000B9B
:10050000F030300060008001000400100040010065
:100510000E002C010C180FC001F06018030020041D
:1005200000400C008008F8984A02E03C0180140169
:1005300040140320210C0F80FFF8018018030020D5
:100540000200200400400400C008008018010010D0
:1005500001003002002002000F8183100580380066
:10056000C00600300340118307F060C401600E0034
:100570003001800E00D00460C1FC001F0308404C15
:1005800002802802801803C074052191F100100335
:1005900000200200400C018060F80077FFF70000A7
:1005A000001DFFFDC01C7CF9F1C000000000F1E35C
:1005B0008F1C38E1C306000006001800E007003871
:1005C00001C006003800E0007000380018001C0070
:1005D0000E00070003FFFF8000000000000000077E
:1005E000FFFCC000C000E000700038001C000C00E0
:1005F0000E000E007003800C007003801C00600071
:100600003F8E0C80280180100100100200C03806C7
:1006100000400400000000000E01F01F00E00F0188
:10062000860808802401400A00501E831420A20579
:10063000102881460A18503F8004001000800200F4
:1006400018183F001FF00006800034000130001829
:1006500080008600043000608002060010100180D7
:10066000800806007FF006008020060100101800B8
:10067000C08006040011FC0FF0FFF8040101002007
:100680004004100104004100104008100C07FF0155
:100690000070400610008400110004400110004466
:1006A00000210033FFF803F1060E8C01C400640042
:1006B00012000A0001000080004000200010000825
:1006C0000004000100008000200188018303807E77
:1006D00000FFE02018200C2004200220022001202E
:1006E0000120012001200120012001200120022001
:1006F000022004200C2018FFE0FFFF0800840042C5
:100700000021001080004000204010200FF004085D
:100710000204010000800040022001100088004413
:10072000003FFFF0FFFF8800440022001100088016
:10073000004000204010200FF004080204010000D7
:100740008000400020001000080004001FF8000393
:10075000F906078400C40024001200020001000012
:10076000800040002000100FF800140009000480F1
:1007700002200118008301C07F00FC3F20042004F8
:100780002004200420042004200420043FFC200432
:100790002004200420042004200420042004200439
:1007A000FC3FFFF810008004002001000800400218
:1007B000001000800400200100080040020010002A
:1007C00081FFF003FF800400020001000080004070
:1007D000002000100008000400021001080084003E
:1007E0004200210010801020180C1801F000FF1F9B
:1007F00084018100C0406010300418010C004600E4
:10080000130005F001C60060C0101804060100C006
:10081000403010040401810023FC0FFF80100020F1
:1008200000400080010002000400080010002000C9
:1008300040008001004200840108021004200FFFE4
:10084000F0F001E70070A00A16034240484C190876
:1008500082211044231884221086C21050420E08B0
:1008600041C10800210004200084001080027F03A1
:10087000F0F81FC60041C0105004120104C041101E
:100880001046041081041041041040841031040407
:10089000410190402410050401C10031FC0C03E02B
:1008A000060C04010400460032000B000500018024
:1008B00000C0006000300018000E000D0004C006EB
:1008C000200208020306007C00FFF0100C1002104A
:1008D0000310011001100110031006100C1FF0107E
:1008E000001000100010001000100010001000FF99
:1008F000C003E0060C04010400460032000B0007B0
:1009000000018000C0006000300018000E000D00E3
:1009100004C00620020802030600FC00300030007C
:100920007FC6381EFFF002018040080801810010D8
:100930002002040040801810060203807FC00818BF
:100940000101802018040180801010030200204063
:10095000067F80700FC861E2019002400900040028
:10096000080038003E000F0006000C00180060016F
:10097000800F002B0323F0FFFF0206040C08181061
:100980002020004000800100020004000800100048
:100990002000400080010002000401FFC0FC1F9005
:1009A0000108008400420021001080084004200259
:1009B000100108008400420021001080084004104B
:1009C000040C060306007C00FE03F88002040010FD
:1009D00030018080080600C0300600802006030039
:1009E0003010008080060C001040008600062000B9
:1009F000110000D8000680001C0000E000FC0FE899
:100A00000019000310006200084181082821050434
:100A100021A084363084460888C13118241204820B
:100A200040B04814090280A0301C0603807E0FC22B
:100A30000060600C06030060C00C1000C6000D8052
:100A400000A0001C00038000D800110006300183C4
:100A50000060300806030060C0067F07F0FC1F98A6
:100A6000030401030180C180208018C0044003609A
:100A700000E0002000100008000400020001000057
:100A8000800040002003FF80FFF400A0090048041C
:100A90004040020020020010010010008008048085
:100AA0002401400C006003FFF0FC21084210842167
:100AB0000842108421084210F88002001000C00291
:100AC0000018004003000800400100080020010059
:100AD000040020008004001000800200100040028A
:100AE00000080040F8421084210842108421084286
:100AF000108421F8020038036011018C183180D86D
:100B0000038008FFFFF8C183060C0FC0703000108F
:100B10000008000800080FF8300840088008800826
:100B20008008803860E83F8FF0000400010000403A
:100B30000010000400010F804C18140106002180F1
:100B40000840011000440011000440011800860014
:100B500021C0105C18F1F80007E4307880320024DE
:100B6000005000200040008001000300020012003D
:100B7000C30701F800001E000080002000080002EA
:100B80000000807C2060C8200A10018400620008F8
:100B9000800220008800220008C00610018200E0C8
:100BA00060E80FE3C007E01C18300C60064003C08B
:100BB00003C001FFFFC000C0004000600030030C14
:100BC0000E03F003FC18008002000800200FFF82D3
:100BD00000080020008002000800200080020008B9
:100BE000002000800200FFF00FC79C3A18070801A0
:100BF0008C00C40022001100088004400210030889
:100C000001820140C3203F100008000400020001DF
:100C100000010001007F00F0000800040002000154
:100C20000000800047C02C181C040C010400820046
:100C300041002080104008200410020801040082B6
:100C40000047C0F8060018006001800000000000A6
:100C50001F800200080020008002000800200080A1
:100C6000020008002000800203FFF00300C0300CE7
:100C700000000003FF0040100401004010040100C8
:100C80004010040100401004010040100806FE005E
:100C9000F0001000100010001000100010FE1030C6
:100CA00010E011C0130016001E001B00118010C0C0
:100CB000106010301018101CF03F7E00080020005B
:100CC000800200080020008002000800200080024E
:100CD00000080020008002000800200080FFFCEFD8
:100CE0009E071E20C1821020420408408108102166
:100CF0000204204084081081021020420408408130
:100D00003E1C3871F00B06070103004100208010E3
:100D100040082004100208010400820041002080E5
:100D200013F03E07C03060802200240050006000B5
:100D3000C001800300050012002200830601F000BC
:100D4000F1FC05C181C01060021800C4001100044C
:100D50004001100044001180086002140104C181A8
:100D60000F80400010000400010000400010003F10
:100D7000C0000FE3C60E8600E10018C00620008800
:100D800000220008800220008400610018200A066A
:100D90000C807C2000080002000080002000080079
:100DA00002000FF0F87C118C2C007000C0010002D2
:100DB00000040008001000200040008001003FFCFB
:100DC000000FD18398048024003000F000FC003034
:100DD00000E003001C01F01A7F0008000800080072
:100DE00008000800FFFC08000800080008000800D0
:100DF0000800080008000800080008000801060FA5
:100E000003F8F03E080104008200410020801040F9
:100E100008200410020801040082004100E041D0D3
:100E20001F8EFE0FE20020600C0C01808020180C49
:100E3000010100306002080041000C6000880019C8
:100E4000000140003800FC07E4001080021820C3B5
:100E50000E1821420428408D8819930322602C68C3
:100E6000058500A0A01C1C0181807C1F18030603BF
:100E700001830063001B0007000380036003180365
:100E80000603018300610033F07EFC1F90018C009B
:100E90008600C18040C06020201830041003080084
:100EA0008C00640016000E00070001000180008025
:100EB00000C00060002007FE00FFF4012009008050
:100EC0000800800800C00400400400401400A0078F
:100ED000FFE0070C08080808080808080830C030B8
:100EE0000808080808080808080C07FFFFFF80E04A
:100EF0003010101010101010101008070C101010E7
:100F000010101010101030E01C00440D8436044006
:100F1000070000000000003E5B4F5B3E3E6B4F6BE6
:100F20003E1C3E7C3E1C183C7E3C181C577D571CCA
:100F30001C5E7F5E1C00183C1800FFE7C3E7FF0043
:100F400018241800FFE7DBE7FF30483A060E262991
:100F5000792926407F050507407F05253F5A3CE754
:100F60003C5A7F3E1C1C08081C1C3E7F14227F221A
:100F7000145F5F005F5F06097F017F006689956AE5
:100F8000606060606094A2FFA29408047E04081070
:100F9000207E201008082A1C08081C2A08081E1099
:100FA0001010100C1E0C1E0C30383E3830060E3E51
:100FB0000E06000000000000005F000000070007B0
:100FC00000147F147F14242A7F2A122313086462DA
:100FD00036495620500008070300001C224100003B
:100FE00041221C002A1C7F1C2A08083E0808008099
:100FF0007030000808080808000060600020100831
:1010000004023E5149453E00427F40007249494931
:10101000462141494D331814127F10274545453963
:101020003C4A494931412111090736494949364667
:101030004949291E00001400000040340000000847
:1010400014224114141414140041221408020159EA
:1010500009063E415D594E7C1211127C7F49494977
:10106000363E414141227F4141413E7F494949410C
:101070007F090909013E414151737F0808087F003B
:10108000417F41002040413F017F081422417F40C1
:101090004040407F021C027F7F0408107F3E414198
:1010A000413E7F090909063E4151215E7F09192908
:1010B00046264949493203017F01033F4040403FF2
:1010C0001F2040201F3F4038403F63140814630333
:1010D000047804036159494D43007F4141410204B2
:1010E000081020004141417F0402010204404040B9
:1010F0004040000307080020545478407F284444AF
:10110000383844444428384444287F3854545418C8
:1011100000087E090218A4A49C787F0804047800C3
:10112000447D40002040403D007F102844000041A5
:101130007F40007C047804787C08040478384444B8
:101140004438FC1824241818242418FC7C080404AF
:1011500008485454542404043F44243C4040207C18
:101160001C2040201C3C4030403C44281028444C6B
:101170009090907C4464544C440008364100000038
:10118000770000004136080002010204023C2623D9
:10119000263C1EA1A161123A4040207A3854545591
:1011A000592155557941225454784221555478405B
:1011B00020545579400C1E527212395555555939E3
:1011C0005454545939555454580000457C41000238
:1011D000457D420001457C407D1211127DF028259D
:1011E00028F07C545545002054547C547C0A097FD7
:1011F0004932494949323A4444443A324A484830EB
:101200003A4141217A3A42402078009DA0A07D3D9C
:101210004242423D3D4040403D3C24FF2424487E24
:101220004943662B2FFC2F2BFF0929F620C0887E0F
:10123000090320545479410000447D413048484A14
:1012400032384040227A007A0A0A727D0D19317DC7
:101250002629292F28262929292630484D4020389B
:101260000808080808080808382F10C8ACBA2F105A
:101270002834FA00007B000008142A142222142AC1
:1012800014085500550055AA55AA55AAFF55FF55F3
:10129000FF000000FF00101010FF00141414FF00E6
:1012A0001010FF00FF1010F010F0141414FC0014C4
:1012B00014F700FF0000FF00FF1414F404FC1414E2
:1012C00017101F10101F101F1414141F00101010DF
:1012D000F0000000001F101010101F10101010F070
:1012E00010000000FF101010101010101010FF1050
:1012F000000000FF140000FF00FF00001F10170097
:1013000000FC04F414141710171414F404F400006F
:10131000FF00F714141414141414F700F714141421
:10132000171410101F101F141414F4141010F010C0
:10133000F000001F101F0000001F14000000FC142C
:101340000000F010F01010FF10FF141414FF141020
:1013500010101F00000000F010FFFFFFFFFFF0F073
:10136000F0F0F0FFFFFF0000000000FFFF0F0F0F85
:101370000F0F3844443844FC4A4A4A347E0202067D
:1013800006027E027E0263554941633844443C04B0
:10139000407E201E2006027E020299A5E7A5991C28
:1013A0002A492A1C4C7201724C304A4D4D3030484B
:1013B000784830BC625A463D3E494949007E0101A9
:1013C000017E2A2A2A2A2A44445F444440514A443E
:1013D0004040444A51400000FF0103E080FF00000C
:1013E00008086B6B083612362436060F090F060004
:1013F0000018180000001010003040FF0101001F0D
:1014000001011E00191D1712003C3C3C3C0000006D
:10141000000000000000240027002A00000000084F
:1014200000020100000304070000000000000000AB
:1014300011007F96290001007F9628003A0155C0CF
:10144000021010C10141C50400228040360168B07D
:101450000100B102B011B40102B60302023BB701B0
:10146000C63A0155F704A9512C82B701C6E80840D5
:101470008A00002919A533C0020D0DC1024300C224
:101480000100C50400480048B40100B60302023B55
:10149000E00F0F211C0B0E08499838091103141096
:1014A00000E10F0F2F2B0C0E064776370711042390
:1014B0001E00B00100B30402000000B40100D0031C
:1014C000074218D103000710D2020102D302010221
:1014D000D4020102C005123B000211C103101088A2
:1014E000C50103C60102C80C003236450616377521
:1014F00077540C00CC0100F603010100CF030081FA
:1015000030ED0464031281E803851078CB05392C93
:10151000003402F70120EA020000B00100B102002D
:101520001BB40100C00121C10111C5023F3CC7012C
:10153000B5360148F20100260101E00F0F26240B09
:101540000E0954A8460C17090F0700E10F00191BDC
:101550000410072A473903060630380F360100B851
:101560000101C0010EB00100C10410100202C0064A
:10157000003500000102C50104D2020104CA0100C5
:10158000EA0180B903FF83577F967F96B60125C095
:10159000065050013C1E08B4070240002A2A0D786C
:1015A0007F01F20B1616030808080810041616FD32
:1015B00003110235B2050C0C003333B70135BB0102
:1015C0002BC00104C20201FFC30111C40120C601E6
:1015D0000FD002A4A1E00ED000050E150D37434731
:1015E0000915121619E10ED000050D0C062D444008
:1015F0000E1C1816197F0A06000700B1020012B46B
:101600000102B60400202700CA0101CB0103C0017A
:10161000137F14C501CCC60100C70104C80103CC67
:101620000106CD011CF9021515F3030A020AF6039F
:10163000011000FA00FB00B00103E2013FC00122EB
:10164000E20100B00100C0010AB00100000000008A
:10165000000000000000000000000100A4000100E4
:10166000FFFF0A006000002708000808300014028D
:1016700031001537320004063300160E34001122F3
:1016800035000015360007853700071438000314AD
:1016900039002000900015001000100411003702DE
:1016A000290046002A0046000700000012008901B8
:1016B00013000011FFFF96001200B90101000001A4
:1016C0000200000203003010090001000A000000BF
:1016D0000D0000000E003000610001006A000000F3
:1016E000800000008100000082005F009200000185
:1016F00093000107FFFF500007000001E500F078AC
:10170000010000010200000203003010040000008C
:101710000500000008000702090000000A000000A0
:101720000C0000000D0000000F0000001000000081
:101730001100070012000000130000000700010064
:10174000FFFFC8001000901611002702FFFF3200B3
:1017500012000D00FFFF32001300001229000A00E2
:101760002B000D00FFFF32002000000021000000D0
:10177000300000003100040432000300350005048D
:10178000360008083700070438000303390007074C
:101790003C0004053D0008086000002761000100CE
:1017A0006A0000008000000081000000820000004C
:1017B00083000000840000008500000090001000FD
:1017C0009200000007003301E500008000000100E6
:1017D00001000001020000070300301004000000B7
:1017E00008000202090000000A0000000C000000CE
:1017F0000D0000000F0000001000000011000700A5
:101800001200000013000000FFFF32001000B017AC
:1018100011000700FFFF0A0012003A01FFFF0A0053
:101820001300001A29000C00FFFF0A00300000001E
:1018300031000505320004003500060036000707B8
:101840003700050138000200390007073C00040793
:101850003D000708600000A7610001006A00000069
:101860002100000020000000800000008100000036
:10187000820000008300000084000000850000005A
:1018800090001000920000009300030095001001EA
:10189000970000009800000007007301FFFF32006E
:1018A000EA020020EC020CC4E80138E90110F10161
:1018B00001F20110400D010000100E24045002132B
:1018C000191916500E1B312F3F3F3E2F7B0906067C
:1018D0000C1DCC1B011B1A010124012F25015723CC
:1018E00001881801341901010101001F01887F05D9
:1018F0001F01807F031F01907F051F01D07F051707
:1019000001053601002801387F2828013F160118FB
:101910000102040810204080010204081020010286
:101920000408102000000000250028002B000404FB
:101930000404040404040202020202020303030377
:1019400003030103680020007E002300FB23112411
:101950001FBECFEFD8E0DEBFCDBF11E0A0E0B1E009
:10196000ECE9FAE602C005900D92AC35B107D9F763
:1019700022E0ACE5B1E001C01D92AE33B207E1F761
:101980001CE0C7EADCE004C02197FE010E9496300B
:10199000C63AD107C9F70E9422240C944C350C9406
:1019A0000000DC01ED91FC910190F081E02D0994A3
:1019B000AF92BF92CF92DF92EF92FF920F931F935D
:1019C000CF93DF936C017B018B01040F151FEB019B
:1019D0005E01AE18BF08C017D10759F06991D60152
:1019E000ED91FC910190F081E02DC6010995892BC4
:1019F00079F7C501DF91CF911F910F91FF90EF9083
:101A0000DF90CF90BF90AF90089590E0FC01E45E2E
:101A1000FB4E2491FC01E05FF64E3491FC01E25D47
:101A2000F64EE491EE23C9F0222339F0233001F180
:101A3000A8F4213019F1223029F1F0E0EE0FFF1F58
:101A4000EC5DF64EA591B4918FB7F894EC916111CD
:101A500026C030953E233C938FBF08952730A9F0D0
:101A60002830C9F0243049F7809180008F7D03C071
:101A7000809180008F7780938000DFCF84B58F774F
:101A800084BDDBCF84B58F7DFBCF8091B0008F7795
:101A90008093B000D2CF8091B0008F7DF9CF3E2BE4
:101AA000DACFCF93DF9390E0FC01E05FF64E249114
:101AB000825D964EFC0184918823D1F090E0880FDE
:101AC000991FFC01EE5EFB4EA591B491FC01EC5D0B
:101AD000F64EC591D49161110EC09FB7F8948C91C8
:101AE000E22FE0958E238C932881E223E8839FBF29
:101AF000DF91CF9108958FB7F894EC91E22BEC939E
:101B00008FBFF6CF8E3008F08E5087708064809340
:101B10007C0080917A00806480937A0080917A00C2
:101B200086FDFCCF809178009091790008953FB7B1
:101B3000F8948091D2019091D301A091D401B091F9
:101B4000D50126B5A89B05C02F3F19F00196A11D10
:101B5000B11D3FBFBA2FA92F982F8827BC01CD01F7
:101B6000620F711D811D911D42E0660F771F881F56
:101B7000991F4A95D1F708958F929F92AF92BF9285
:101B8000CF92DF92EF92FF926B017C010E94970D42
:101B90004B015C01C114D104E104F104B9F00E94CD
:101BA000970D681979098A099B09683E7340810578
:101BB000910580F321E0C21AD108E108F10888EE0E
:101BC000880E83E0981EA11CB11CE4CFFF90EF901B
:101BD000DF90CF90BF90AF909F908F90089520910D
:101BE0008301260F3327331F21323105ECF4209176
:101BF000A701FC0190E080E0243069F082E00895C4
:101C0000A09183012191AC014D595E4FA40FB52FD6
:101C1000B11D2C930196861798F380918301680F6C
:101C20006093830180E0089581E0089508958FEF27
:101C30009FEF08958FEF9FEF089580915C0190E0F2
:101C40009195819591090895CF93DF93CB01EA0196
:101C5000642F0E94EF0DCE01DF91CF910895CF93B5
:101C6000DF931F92CDB7DEB7698361E0CE010196A5
:101C70000E94EF0D81E090E00F90DF91CF910895E9
:101C80004115510529F4EAE7F0E080818F778083E0
:101C90006A307105B9F0CB01880F991F880F991F21
:101CA000807267706860682B88E10FB6F894A89519
:101CB000809360000FBE60936000E0E6F0E08081FA
:101CC00080648083232BD9F483B7817F846083BFB2
:101CD000F89483B7816083BF85B7806685BF8F7DA9
:101CE00085BF7894889583B78E7F83BF7894452B82
:101CF00029F4EAE7F0E0808180688083089583B763
:101D0000817F846083BFF89483B7816083BF7894B8
:101D1000889583B78E7F83BF7894E9CF0895FC01BF
:101D20006370668B8481958126813781613039F0BB
:101D3000633029F091878087338722870895318720
:101D400020879387828708952F923F924F925F92C8
:101D50006F927F928F929F92AF92BF92CF92DF92BB
:101D6000EF92FF920F931F93CF93DF93CDB7DEB720
:101D70006A970FB6F894DEBF0FBECDBF9A8F898FDA
:101D80007A8369834A01D22E18870F833701BC2CCE
:101D9000DC0159962D913C915A972115310509F096
:101DA00015C118968D919C911997681779070CF0B9
:101DB000D7C11A968D919C91481759070CF0D0C144
:101DC0004C2C512CB6E0CB9E600D711D11247C87EC
:101DD0006B87161617060CF0C3C1EA2DF0E0FA87E0
:101DE000E98793E0EE0FFF1F9A95E1F7F88BEF87F5
:101DF000CF01840F951F181619060CF0B1C1A98DDB
:101E0000BA8D58968C91811104C0BFEABD1508F4B3
:101E1000D394A98DBA8DED91FC9111970284F3852D
:101E2000E02DCD010995B5E0DB9EC0011124E981CB
:101E3000FA81FC83EB83312C212C9C012E5E304FE8
:101E4000388F2F8B4A2D50E05E8B4D8BEF89F88DAC
:101E5000E20DF31D44919E828D82D12CC12C6981AB
:101E60007A81620D731D7A8B698B842F90E09C8B35
:101E70008B8BE98DFA8DA081B18140FF82C0F1E0AA
:101E8000BF126FC0AF126DC01C96ED91FC912F81F7
:101E90003885A4014C0D5D1D69897A89898D9A8DDB
:101EA0000995EB89FC89F595E7954E2F5FEFC51AEB
:101EB000D50A6D817E818D899E89680F791F7E8309
:101EC0006D8398E0C916D10481F6AFEF2A1A3A0A59
:101ED000EB81FC81E40DF51DFC83EB83F5E02F160F
:101EE000310409F0B3CF2F81388526153705B9F0B5
:101EF000A98DBA8DED91FC91B1E0BB1257C0AB1228
:101F000055C069817A816B5F7F4F0088F189E02D30
:101F1000830128E030E0A401898D9A8D0995A98D6F
:101F2000BA8DED91FC9111970688F789E02DCD01CE
:101F30006A960FB6F894DEBF0FBECDBFDF91CF918A
:101F40001F910F91FF90EF90DF90CF90BF90AF90D7
:101F50009F908F907F906F905F904F903F902F90C9
:101F600009941E96ED91FC91EF80F88409851A85FD
:101F700092014D815E816B817C81898D9A8D09955D
:101F800090CF2F8138852615370509F48ACF31E0A7
:101F9000B31207C0A31205C01C96ED91FC919301EA
:101FA00078CF1E96ED91FC917301E0CF6B857C8517
:101FB000641975090684F785E02D73010F8518896A
:101FC0009201A401898D9A8D0995A9CFF9013496C2
:101FD0009491329745915491D91AB7E0DB9E400D08
:101FE000511D1124F901259134913C8B2B8BFA0161
:101FF00025903490FA013296749031963491398B51
:10200000329664903196449041E04C1518F04A1590
:1020100008F07FC0662D062C000C770B7C836B8349
:10202000842D042C000C990B9E838D83A98DBA8D71
:10203000ED91FC9111970284F385E02DCD01099576
:10204000512CD12CC12CEA2DF0E0FA87E9872B2DF9
:1020500030E03C872B87A401440D511D47FC5A9565
:10206000588F4F8B69817A81660D711D67FC7A9557
:102070007E876D877989C71608F051CF2C2D30E007
:102080004D815E81420F531FA985BA854A9FC001C9
:102090004B9F900D5A9F900D1124FC01E80DF91DE6
:1020A000F88BEF87852D612C4F89588D420F531F78
:1020B0005E8B4D8B671408F050C044244394480E47
:1020C000877041F4C1010196EB89FC89E20DF31D93
:1020D000D4901C01D7FE19C0A98DBA8DED91FC9149
:1020E000662D70E0B1E0BB1219C0AB1217C02D8590
:1020F0003E85620F731F0484F585E02D2F8138859E
:102100004D895E89898D9A8D0995DD0C6394842DA6
:10211000D1CF1E821D821C821B8288CF4B815C81A5
:10212000640F751FAB85BC856A9FC0016B9F900DC6
:102130007A9F900D112469817A81680F791F068436
:10214000F785E02DEF80F88409851A859D014F857C
:102150005889898D9A8D0995D8CF570CC3948ACF09
:102160006A960FB6F894DEBF0FBECDBFDF91CF9158
:102170001F910F91FF90EF90DF90CF90BF90AF90A5
:102180009F908F907F906F905F904F903F902F9097
:1021900008958F929F92AF92CF92EF92FF920F93FA
:1021A0001F93CF93DF93EC01262F898D9A8D009793
:1021B00009F051C06A30D1F41D861C868D8948E033
:1021C000849F900111248E859F85820F931F9F8786
:1021D0008E8781E090E0DF91CF911F910F91FF906A
:1021E000EF90CF90AF909F908F9008956D3089F3CE
:1021F000CC88AD888F898823C1F08C859D8536E099
:10220000C39E800D911D1124488559854817590793
:1022100064F44E855F851D861C8638E0A39EC00150
:102220001124840F951F9F878E87EA88FB88088971
:1022300019894E855F856C857D85CE010E94A40E2F
:102240002C898C859D8546E0249F800D911D11244D
:102250009D878C87BECF6A3069F41D861C86FC0181
:102260003896E4912D898E859F85E29F800D911D82
:102270001124ADCF6D3009F4ACCFFC01349634910C
:10228000631708F4A6CF3296E491E61708F4A1CFBD
:10229000FC01329685909490462F431B342F47E0E3
:1022A000349F800C911C1124F401329634913196A4
:1022B000E4913323A9F1EE2399F1CC88F40135960A
:1022C000E491AD884F89442301F10E2E000CFF0BE1
:1022D000E30FF11DCE9EA001CF9E500D11246C8501
:1022E0007D85460F571F68857985641775076CF4DF
:1022F0004E855F851D861C86FC013896E491AE9E56
:10230000400D511D11245F874E87EA88FB8808899C
:1023100019894E855F856C857D85CE010E94A40E4E
:10232000F4013496E4912C898C859D85E29F800D83
:10233000911D11248DCF6F927F928F929F92AF92B9
:10234000BF92CF92DF92EF92FF920F931F93CF93A2
:10235000DF93EC016B015A0139014801E881F981F1
:102360000284F385E02D0995E881F9810288F389DB
:10237000E02D87019301A501B601CE010995A501C4
:10238000480D591D41505109E881F9810288F389AE
:10239000E02D9301B601CE010995E881F98100880D
:1023A000F189E02D9401A501B601CE010995C60C75
:1023B000D71CB60161507109E881F9810088F18963
:1023C000E02D9401A501CE010995E881F9810688E7
:1023D000F789E02DCE01DF91CF911F910F91FF90F2
:1023E000EF90DF90CF90BF90AF909F908F907F90B5
:1023F0006F9009946F927F928F929F92AF92BF924B
:10240000CF92DF92EF92FF920F931F93CF93DF93C0
:102410005C01EB016A01490138018701DC01ED91A2
:10242000FC916217730719F5641675062CF0962D4A
:10243000872D3A01C92ED82E9601261937092F5F0C
:102440003F4F048CF58DE02DA301BE01C501099518
:10245000DF91CF911F910F91FF90EF90DF90CF9080
:10246000BF90AF909F908F907F906F90089546158A
:10247000570591F42617370724F0892D4B01C22FF9
:10248000D82F9E01281939092F5F3F4F068CF78DF1
:10249000E02DA601B401DACF0284F385E02D099581
:1024A000D501ED91FC910488F589E02D830194011B
:1024B000A601BE01C5010995D501ED91FC910688E3
:1024C000F789E02DC501DF91CF911F910F91FF900A
:1024D000EF90DF90CF90BF90AF909F908F907F90C4
:1024E0006F900994EF92FF920F931F93DC011A965D
:1024F0000D911C911B9718962D913C911997ED9178
:10250000FC9100A0F1A1E02D7B0150E040E070E0E3
:1025100060E009951F910F91FF90EF9008954F9201
:102520005F926F927F928F929F92AF92BF92CF9263
:10253000DF92EF92FF920F931F93CF93DF936C0183
:102540002B015A0139014801DC01ED91FC91028413
:10255000F385E02D0995E201640C751CD601ED911F
:10256000FC91C615D7055CF40088F189E02D870140
:102570009401A501BE01C60109952196EFCF0688F9
:10258000F789E02DC601DF91CF911F910F91FF9048
:10259000EF90DF90CF90BF90AF909F908F907F9003
:1025A0006F905F904F9009948F929F92AF92BF92DD
:1025B000CF92DF92EF92FF920F931F93CF93DF930F
:1025C000EC015B014A016901E881F9810284F3852C
:1025D000E02D099595012C0D3D1D21503109E88113
:1025E000F9810488F589E02D78018401A401B50101
:1025F000CE010995E881F9810688F789E02DCE01A1
:10260000DF91CF911F910F91FF90EF90DF90CF90CE
:10261000BF90AF909F908F9009948F929F92AF92AE
:10262000BF92CF92DF92EF92FF920F931F93CF93BF
:10263000DF93EC015B014A0169017801E881F981CE
:102640000284F385E02D0995C80CD91C8601015040
:102650001109E881F9810488F589E02D9501A4012B
:10266000B501CE010995E881F9810688F789E02D49
:10267000CE01DF91CF911F910F91FF90EF90DF90EE
:10268000CF90BF90AF909F908F900994EF92FF9260
:102690000F931F93DC01ED91FC9100A0F1A1E02DBF
:1026A00009951F910F91FF90EF9008950F931F933D
:1026B000DC01ED91FC91068CF78DE02D09951F91C1
:1026C0000F9108950F931F93DC01ED91FC91048C01
:1026D000F58DE02D09951F910F910895DC01ED9185
:1026E000FC910084F185E02D09942F923F924F9246
:1026F0005F926F927F928F929F92AF92BF92CF9292
:10270000DF92EF92FF920F931F93CF93DF9300D04E
:1027100000D000D0CDB7DEB73C016A013E832D83E7
:10272000FC82EB825801A41AB50AB7FE03C0B1942B
:10273000A194B1088D809E80861A970A97FE03C0E7
:102740009194819491088A149B045CF0902F812FBE
:102750000D811E819D838E839C2D8D2D6B01692F94
:10276000782F0C151D055CF09D818E817E836D8315
:10277000692F782F902F812F8601C92ED82E160110
:10278000201A310A2B012D813E81421A530A57FE2D
:1027900003C0519441945108710137FE03C03FEFCB
:1027A000E31AF30AF594E7948D819E8186179707C3
:1027B0005CF5A1E0B0E0BA83A983C016D1064CF164
:1027C000D301ED91FC910484F585E02D2B813C81B2
:1027D000A8016D817E818A149B041CF04D815E816D
:1027E000B801C3010995E418F508F7FE0AC02D8168
:1027F0003E8189819A81280F391F3E832D83E20C07
:10280000F31C0F5F1F4FD9CF2FEF3FEF3A83298380
:10281000D4CF26960FB6F894DEBF0FBECDBFDF91A2
:10282000CF911F910F91FF90EF90DF90CF90BF90CD
:10283000AF909F908F907F906F905F904F903F9060
:102840002F9008950F931F93CF93DF93EC018B018B
:10285000FE0184913196649122968F3799F470E04D
:1028600090E080E00E94BC0D60E070E06E5F7F4F02
:10287000061B170B101611065CF3DF91CF911F9109
:102880000F9108954398429895B19C7F282F23700B
:10289000922B95B99BB19370282F2C7F922B9BB9CB
:1028A0004198419A30E020E0422F261760F5FE0162
:1028B000E20FF31FE491429A95B19C7F5E2F537013
:1028C000952B95B99BB19370EC7FE92BEBB94198AF
:1028D000419A9091D601992399F04F5F461780F461
:1028E00042988F5F95B19C7F482F4370942B95B988
:1028F0009BB19370482F4C7F942B9BB94198419A80
:102900002F5F3F4FD1CFC60FD11D439AAECF439813
:10291000429825B12C7F392F3370232B25B92BB149
:102920002370392F3C7F232B2BB94198419A25B135
:102930002C7F382F3370232B25B92BB12370382FE0
:102940003C7F232B2BB94198419A429AFA015FEFC1
:10295000560F1616ACF5419135B13C7F242F2370EC
:10296000322B35B92BB123704C7F242B2BB94198D6
:10297000419A552319F12091D6012223F9F00196AD
:10298000429825B12C7F392F3370232B25B92BB1D9
:102990002370392F3C7F232B2BB94198419A25B1C5
:1029A0002C7F382F3370232B25B92BB12370382F70
:1029B0003C7F232B2BB94198419A429A652FC7CF70
:1029C000439A08954398429825B12C7F392F33704C
:1029D000232B25B92BB123709C7F922B9BB9419857
:1029E000419A95B19C7F282F2370922B95B99BB16A
:1029F00093708C7F892B8BB94198419A429A85B10B
:102A00008C7F972F9370892B85B98BB183707C7FD6
:102A1000782B7BB94198419A85B18C7F962F937022
:102A2000892B85B98BB183706C7F682B6BB941980A
:102A3000419A439A089581E08093040284B18360AF
:102A400084B98AB18C6F8AB9389A399A3A9A3B9A82
:102A50003C9A439A409A419A449A62E370E080E03B
:102A600090E00E94BC0D449864E670E080E090E045
:102A70000E94BC0D449A64E670E080E090E00E9401
:102A8000BC0D70E060E080EB90E00C94E2141F93CA
:102A9000CF93DF93C82F162F80910402811102C0BB
:102AA0000E941B154398429885B18C7F85B98BB1E4
:102AB00083708BB94198419A95B19C7F8C2F83701C
:102AC000982B95B98BB18370CC7F8C2B8BB94198A7
:102AD000419A429A84B18C7F84B98AB183708AB951
:102AE00061E070E080E090E00E94BC0D61E070E089
:102AF00080E090E00E94BC0D409A40984098409839
:102B0000C3B1D9B1409A61E070E080E090E00E94EA
:102B1000BC0D409A40984098409883B199B1409A32
:102B2000115020F7409A439A24B1236024B92AB166
:102B30002C6F2AB9C370DC7FCD2B83709C7F892BCF
:102B40009C2FDF91CF911F9108950F931F93CF93E7
:102B5000DF938C0160E00E944715EC0161E0C80141
:102B60000E9447158C01BE0190E080E0CB017727E1
:102B7000662730E020E0602B712B822B932BDF91B6
:102B8000CF911F910F910895FF920F931F93CF93B1
:102B9000DF938C0160E00E944715EC0161E0C80101
:102BA0000E944715F82E62E0C8010E944715AE0149
:102BB00070E060E0742F66275527442700E030E07E
:102BC00020E0402B5F29622B732B292F30E0C901B5
:102BD000B0E0A0E08A019B01082B192B2A2B3B2B8C
:102BE000C901B801DF91CF911F910F91FF90089516
:102BF0000F931F93CF93DF93EC018B01FE0185911F
:102C00009491FE0132962496659174918F3F9807B6
:102C100071F490E080E00E94BC0D04501109101680
:102C2000110664F3DF91CF911F910F9108950E94D7
:102C3000E214F3CFCF93DF931F92CDB7DEB7FC0141
:102C4000862F358D268D22952170922F9627692FFC
:102C500070E072A361A330FF30C09091D601992338
:102C600009F1478D50A1473493E8590719F04235CF
:102C7000524591F428130EC082E08983AE014F5F64
:102C80005F4F61E081E090E00E9487140F90DF9138
:102C9000CF91089586E0F1CF281302C08AE0EDCFEE
:102CA00088E0EBCF281306C080E290E050E040E0DF
:102CB00060E0EACF81E290E0F9CF878D90A183397F
:102CC00027E7920741F058F4843521E0920791F00C
:102CD00080329445C9F4626081E094E012C086328B
:102CE00023E99207C1F3893025EB9207A1F38532DE
:102CF000924951F4660F771F660F771F636187E073
:102D000090E00E94E214C2CF81E690E0FACF8F9269
:102D10009F92AF92BF92CF92DF92EF92FF920F936A
:102D20001F93CF93DF9300D000D0CDB7DEB77C01E7
:102D30004B016A015901FC01878D90A186329541B2
:102D400059F4F701868980FF07C0C801841B950BE1
:102D500009F04FC00F5F1F4FF701858D80FF51C0F5
:102D600085A599828A82BB82AC82AE014F5F5F4F9C
:102D700064E090E00E948714F70181A9D982CA8299
:102D80001B830C83AE014F5F5F4F64E090E00E94B5
:102D900087148091D6018823D9F0F701878D90A1FF
:102DA00085369105A9F499828A82AE014F5F5F4F03
:102DB00062E087A190A50E948714D982CA82AE01E1
:102DC0004F5F5F4F62E0F70181A592A50E948714D3
:102DD0000F900F900F900F90DF91CF911F910F9157
:102DE000FF90EF90DF90CF90BF90AF909F908F902B
:102DF00008952617370709F0AFCFA80EB91E8A012C
:102E0000ABCFB40187A190A50E94E214B601F701EF
:102E100081A592A50E94E214A814B90419F40C1516
:102E20001D05B1F2F701858D85FF08C0868980FFF9
:102E30001EC0102F0027C02AD12A8601B401F70135
:102E400085A596A50E94E214B601F70181A992A971
:102E50000E94E214B501F70187A590A90E94E2142F
:102E6000B801F70183A994A90E94E214B1CFBA2C4A
:102E7000AA248A289B285401E1CFAF92BF92CF9217
:102E8000DF92EF92FF920F931F93CF93DF93EC01AA
:102E900037FF05C0620F731F319521953109260F49
:102EA000371F77FF02C070E060E08885998528179A
:102EB00039070CF4C9016C01C61AD70A17FF05C0FF
:102EC000400F511F119501951109040F151F57FF50
:102ED00002C050E040E02A853B85021713070CF43E
:102EE00098015901A41AB50A8901015011099C01E0
:102EF00021503109CE010E948716439842983BA584
:102F00008CA525B12C7F982F9370292B25B99BB1C7
:102F100093708C7F982B9BB94198419A95B19C7F77
:102F2000832F8370982B95B98BB183703C7F832B53
:102F30008BB94198419A429ACA14DB042CF09A2D1D
:102F40008B2D5601C92ED82E9F2D93702F2D2C7F9F
:102F5000F22E4E2D43708E2D8C7FE82E1C141D04F6
:102F6000E4F4950185B18C7F892B85B98BB1837091
:102F70008F298BB94198419A85B18C7F842B85B973
:102F80008BB183708E298BB94198419A21503109B8
:102F900049F721E0C21AD108E1CF439A8D8D80FF15
:102FA00008C08F8D98A18632954191F48E8980FF5B
:102FB0000FC00A851B8501501109288539852150CC
:102FC000310950E040E070E060E0CE010E948716D9
:102FD000DF91CF911F910F91FF90EF90DF90CF90F5
:102FE000BF90AF900895EF92FF920F931F93CF93EE
:102FF000DF93EC0177FD1CC057FD1AC0E885F98509
:103000006E177F07ACF4EA85FB854E175F0784F4E3
:1030100079018A019B010E948716B7018BA59CA5A7
:10302000DF91CF911F910F91FF90EF900C94E214DC
:10303000DF91CF911F910F91FF90EF900895EF9244
:10304000FF920F931F93CF93DF93CDB7DEB72A97ED
:103050000FB6F894DEBF0FBECDBF7C01862F837004
:10306000D70156968C935697462F417060FF71C0DA
:1030700016962D913C91D70119963C932E93189753
:10308000442309F46AC014962D913C91D7011B96F4
:103090003C932E931A97823009F465C0833009F46B
:1030A00064C0813009F45DC088E48A87F701258D0A
:1030B000368D30FF03C08A8580588A8731FF04C06F
:1030C0008A8590E489278A8733FF04C08A8598E03F
:1030D00089278A87D7015F968D919C9120FF85C1B2
:1030E0001091D6018431B8E69B0709F040C09A855B
:1030F000892F88728A871F82892F85958074282F4F
:103100002260892F90E09595879580729927822B70
:1031100088878BE38987AE01495F5F4F63E086EB69
:1031200090E00E9487142AE230E0F70130A727A33D
:103130008BE290E092A781A74CE250E054A743A70E
:1031400036A725A730AB27A792AB81AB94AB83AB57
:103150007BC0F701248135818ECFF701268137812D
:1031600095CF88E2A2CF88E9A0CF88EF9ECF8336A3
:10317000E9E19E0741F08138F4E99F0721F08131B0
:1031800025E1920709F52A8527FF02C021602A87D9
:103190002A8526FF02C022602A878336A9E19A0782
:1031A00021F48A858F738A87BECF8138B4E99B0763
:1031B00019F48A858F72F7CF8131954109F0B3CF29
:1031C0008A858F7E806CEFCF112309F4ACCF62E04B
:1031D00070E0D70198967C936E93979726E030E045
:1031E0009A963C932E939997E2E2F0E09C96FC939A
:1031F000EE939B979E967C936E939D9764E070E010
:10320000D0967C936E939F97D2963C932E93D197B2
:1032100028E030E0D4963C932E93D39785369105E1
:1032200009F0D5C09A85892F816094FDBFC08A8737
:10323000442309F4BEC082E890E0F70190A787A379
:1032400080E890E092A781A786E190E0111102C08A
:1032500086E390E0AE01465F5F4F61E00E94871415
:103260008A8590E0D70194969C938E939397D7018B
:1032700056968C91569780FF36C05D968D919C91A5
:103280005E9792FD30C097968D919C9198979996F4
:103290002D913C919A9798963C932E9397979A9656
:1032A0009C938E9399979D968D919C919E97D19684
:1032B0002D913C91D2979E963C932E939D97D296BA
:1032C0009C938E93D1979F968D919C91D097D396F6
:1032D0002D913C91D497D0963C932E939F97D49662
:1032E0009C938E93D397F7010285138501501109A2
:1032F000208531852150310950E040E070E060E0E8
:10330000C7010E948716D7015F968D919C9120E09E
:103310008732B3E99B0709F420E2F701358D30FFCE
:1033200005C18681978119821A829B838C831D82B5
:103330002E831091D6018EE090E0111102C083E33C
:1033400090E0AE014F5F5F4F66E00E9487141982E4
:103350001A8284E190E0111102C087E390E0AE018F
:103360004F5F5F4F62E00E948714112309F4D4C0BD
:103370001982D7015F968D919C918734934809F00B
:10338000C8C088E190E0AE014F5F5F4F61E00E94EE
:1033900087142A960FB6F894DEBF0FBECDBFDF911B
:1033A000CF911F910F91FF90EF90089593ED892792
:1033B0003ECF80E890E0D70198969C938E939797A4
:1033C00082E890E09A969C938E9399973DCF8235B0
:1033D000924509F039CF9A85892F826094FD02C009
:1033E0008A8732CF94ED8927FBCF6A85062E000CA1
:1033F000770B662770788339B7E79B07E1F198F57B
:103400008032F4E59F07B9F180E290E0D701989609
:103410009C938E93979781E290E09A969C938E93DB
:10342000999782E290E09C969C938E939B9780E57F
:1034300090E09E969C938E939D9781E590E0D09628
:103440009C938E939F9782E590E0D2969C938E9367
:10345000D19783E590E0D4969C938E93D39777622F
:1034600080E690E032C0863223E9920721F089306D
:10347000A5EB9A0749F620E032E0F70130A727A331
:1034800021E032E032A721A722E032E034A723A7CF
:1034900020E132E036A725A721E132E030AB27A7B3
:1034A00022E132E032AB21AB23E132E034AB23AB9B
:1034B0008632F3E99F0751F18032944539F180E07B
:1034C0009AE6682B792B80E094E00E94E2146A85EA
:1034D000B4E06B9FB00111246627717081E090E029
:1034E0000E94E2148A85682F70E07595679575953E
:1034F00067956870772783FD70616063F70174A337
:1035000063A383E090E00E94E214B1CE80E095E3F3
:10351000D8CF81E090E037CFF701858D80FF39CF9C
:1035200050E040E060E083E190E031CF61A172A122
:103530008339B7E79B07C9F088F48032F4E59F0729
:10354000A1F08338974709F0626081E690E00E941D
:10355000E21470E060E08AE690E010C08632A3E9F1
:103560009A0719F08930954B79F7626081E094E011
:103570000E94E21470E060E084E094E00E94E214B3
:1035800008CFEF92FF920F931F93DC01ED91FC9116
:1035900000A0F1A1E02D780101E010E009951F9154
:1035A0000F91FF90EF900895EF92FF920F931F936A
:1035B000DC01ED91FC9100A0F1A1E02D78018901E1
:1035C00021E030E009951F910F91FF90EF90089551
:1035D000089590E080E00895DC011E96ED91FC9145
:1035E0001F9712968D919C9113974B962D913C911C
:1035F0001197358724879787868718968D919C9198
:10360000938B828B918B808B6DE3CF010C94D10CCB
:10361000DC011E96ED91FC911F9712968D919C9165
:1036200013974B962D913C91119735872487978757
:10363000868718968D919C911997938B828B918B8D
:10364000808B50966C91CF010C94D10CEF92FF922D
:103650000F931F93DC011A960D911C911B971896DE
:103660002D913C911997ED91FC9100A0F1A1E02DD5
:103670007B0150E040E070E060E009951F910F9100
:10368000FF90EF900895FC01808191816817790780
:10369000A4F024813581820F931F861797076CF061
:1036A000228133814217530744F086819781280F86
:1036B000391F81E0241735070CF480E00895EF925C
:1036C000FF920F931F93FC017B01868597850681EE
:1036D0001781045011092481358124503109428118
:1036E00053814E5F5F4F608171816E5F7F4FDC0160
:1036F000ED91FC9100A0F1A1E02D09951F910F9192
:10370000FF90EF900895CF93DF93EC016FEE7BE78E
:103710000E945F1BEE85FF858A819B814B962881E5
:103720003981358724879787868788859985938B04
:10373000828B918B808B6889CF01DF91CF910C9424
:10374000D10CCF93DF93EC01E091DD01F091DE012C
:10375000808181110BC0EC17FD0741F081E080836F
:1037600060EA7DEF878590890E945F1BE091DB0115
:10377000F091DC01808181110BC0EC17FD0741F055
:1037800081E0808360EA7DEF878590890E945F1BDE
:10379000E091D901F091DA01808181110BC0EC1721
:1037A000FD0741F081E0808360EA7DEF87859089A5
:1037B0000E945F1BE091D701F091D80180818111B7
:1037C0000DC0EC17FD0751F081E0808360EA7DEFCA
:1037D00087859089DF91CF910C945F1BDF91CF910A
:1037E0000895EF92FF920F931F93CF93DF93EC0115
:1037F0008E859F85EC84FD840E811F812C813D8107
:103800004A815B8168817981DC01ED91FC9106A0A0
:10381000F7A1E02D09958E859F85EA84FB840E81B2
:103820001F81045011092C813D81245031094A81A6
:103830005B814E5F5F4F688179816E5F7F4FDC01F6
:10384000ED91FC9100A0F1A1E02D0995DF91CF91C0
:103850001F910F91FF90EF900895FC01A781B08513
:1038600050968D919C91A385B48550966D917C91D5
:103870000184F285E02D40894B3229F49B01280F09
:10388000391FC90108954D3221F49C01261B370BC5
:10389000F8CF4A3241F4689F9001699F300D789FBC
:1038A000300D1124EECF4F3221F40E946E309B0177
:1038B000E8CF453231F70E946E309C01E2CFDC0147
:1038C00014968D919C9115976817790750F4ED9196
:1038D000FC911197E60FF71F15967C936E93149742
:1038E00010820895CF93DF93EC018881813029F015
:1038F000823091F0DF91CF910895FE011192CF01B6
:1039000070E060E00E945F1C68E176EC8F8598892A
:10391000DF91CF910C945F1B188268E176EC8F8564
:1039200098890E945F1B70E060E0CE010196DF91F4
:10393000CF910C945F1CCF93DF93EC018F85988916
:10394000009761F00E9438318D859E850E94383144
:1039500089859A85DF91CF910C943831DF91CF9191
:103960000895CF93DF93EC018F8598890097A1F09C
:103970000E9438318D859E850E9438318B859C85CB
:103980000E94383189859A850E9438318F819885C7
:10399000DF91CF910C943831DF91CF91089561156B
:1039A000710579F0FB0101900020E9F73197AF0133
:1039B000461B570BDC01ED91FC910280F381E02D59
:1039C000099490E080E008950E947E320F931F9347
:1039D000CF93DF93EC0188819981009759F02A8178
:1039E0003B812617370730F081E0DF91CF911F919F
:1039F0000F9108958B016F5F7F4F0E94C131009737
:103A000059F0998388831B830A832C813D81232B62
:103A100059F7FC011082E8CF80E0E7CFEF92FF92E8
:103A20000F931F93CF93DF93EC017B018A01BA01BF
:103A30000E94E61C28813981811114C021153105AD
:103A400019F0C9010E943831198218821D821C8226
:103A50001B821A82CE01DF91CF911F910F91FF90AF
:103A6000EF9008951D830C83B701C9010E94953220
:103A7000F1CFCF93DF93EC0181E088831A82198222
:103A80001C821B821E821D8250E040E06FE471E0C8
:103A9000CE0101960E940E1D18861F821A86198675
:103AA0001C861B861E861D86188A1F86DF91CF9175
:103AB00008951F93CF93DF9385ED8093BC00809191
:103AC0005F0190916001A0916101B0916201079640
:103AD000A11DB11D23E0B695A795979587952A95C9
:103AE000D1F72091BC0024FD03C01092A70152C061
:103AF00040915F015091600160916101709162019C
:103B0000452B462B472B69F30097A105B10541F0E2
:103B100025E32A95F1F700000197A109B109E1CF4A
:103B200080915E01C1E0C0935D01882399F1D0913D
:103B3000B8001091BA008091BC008A7B8093BC00D1
:103B400060E082E10E94050D60E083E10E94050DC6
:103B50001092A701C093A9011092A80161E082E12F
:103B60000E94050D61E083E10E94050D8091B9007E
:103B70008E7F8093B9008091B9008D7F8093B900CA
:103B800088E48093B80085E48093BC001093BA0069
:103B9000D093B800DF91CF911F910895EF92FF92DB
:103BA0000F931F93CF93DF9300D000D01F92CDB718
:103BB000DEB78C01DC011E96ED91FC911F971296E9
:103BC0008D919C9113974B962D913C911197358730
:103BD00024879787868718968D919C911997938B48
:103BE000828B918B808B51968C9151978F935096AD
:103BF0008C918F9384E491E09F938F93FE01319693
:103C00007F01FF93EF930E94AB32B701D8011E965C
:103C10008D919C910E94CF1C0F900F900F900F9050
:103C20000F900F900F900F900F900F900F90DF91CB
:103C3000CF911F910F91FF90EF900895EF92FF9217
:103C40000F931F93CF93DF9300D000D01F92CDB777
:103C5000DEB78C0160EA7DEF0E945F1BD8011E96E3
:103C6000ED91FC911F9712968D919C9113974B9615
:103C70002D913C91119735872487978786871896D1
:103C80008D919C911997938B828B918B808B519600
:103C90008C9151978F9350968C918F9388E491E0FB
:103CA0009F938F93FE0131967F01FF93EF930E94C4
:103CB000AB32B701D8011E968D919C910E94CF1C0A
:103CC0000F900F900F900F900F900F900F900F90FC
:103CD0000F900F900F90DF91CF911F910F91FF9058
:103CE000EF900895CF93DF93DC011796ED91FC914F
:103CF000189720893189232B99F419960D90BC913E
:103D0000A02D50968C918F3211F0853249F481E0CC
:103D100090E0918B808BCF01DF91CF910C941E1E90
:103D2000DF91CF910895CF93DF93EC010E94302D66
:103D300025E030E040E050E00E94BF2E6D5E7E4FF7
:103D4000FB018081888BDF91CF910895CF93DF9322
:103D5000EC010E94302D2DE030E040E050E00E9468
:103D6000BF2E798B688BDF91CF9108952F923F9270
:103D70004F925F926F927F928F929F92AF92BF927B
:103D8000CF92DF92EF92FF920F931F93CF93DF9327
:103D90008091D7019091D8010E949B1C8091D901FC
:103DA0009091DA010E949B1C8091DB019091DC01D3
:103DB0000E94B11C8091DD019091DE010E94B11C36
:103DC00082E190E00E949C305C0165E0C62E62E0DA
:103DD000D62EFC01D786C6861182108213821282EB
:103DE00082E490E095838483C2E2D0E0D783C683E7
:103DF000EE24EA94FE2CF186E086A0EA4A2EADEF8E
:103E00005A2E538642860FE110E015870487C501BC
:103E10000E94F11BC5010E94A61EC5010E941E1E24
:103E2000E091DD01F091DE01B086A78281E190E0B2
:103E30000E949C304C01FC01D786C68682E490E04B
:103E40009183808313821282B6E1AB2EB12CB582AE
:103E5000A482D783C683F186E0868FEE682E8BE737
:103E6000782E7386628615870487C4010E94F11B31
:103E7000C4010E94931EC4010E94831BE091DD01D6
:103E8000F091DE019286818682E190E00E949C3072
:103E90004C01FC01D786C68698E5292E312C31824B
:103EA00020821382128282E490E095838483D783F8
:103EB000C683F186E0865386428615870487C4014F
:103EC0000E94F11BC4010E94A61EC4010E941E1E76
:103ED000E091DD01F091DE019486838680E190E03F
:103EE0000E949C304C01FC01D786C6868AE990E08E
:103EF0009183808313821282B582A482D783C68382
:103F0000F186E0867386628615870487C4010E9465
:103F1000F11BC4010E94EC1AE091DD01F091DE0179
:103F20009686858682E190E00E949C304C01FC01DF
:103F3000D786C68680EB90E09183808313821282BD
:103F400035822482D783C683F186E08653864286F3
:103F500015870487C4010E94F11BF401118A108A9D
:103F60008091DD019091DE01FC01908A878621E03D
:103F700020830E94721E82E190E00E949C304C01DE
:103F8000FC01D786C6861182108284E490E0938378
:103F9000828382E490E095838483D783C683F1860D
:103FA000E0865386428615870487C4010E94F11B70
:103FB000C4010E94A61EC4010E941E1EE091DB01E6
:103FC000F091DC019086878281E190E00E949C3034
:103FD0004C01FC01D786C68682E490E09183808301
:103FE00084E490E093838283B582A482D783C683DE
:103FF000F186E0867386628615870487C4010E9475
:10400000F11BC4010E94931EC4010E94831BE09116
:10401000DB01F091DC019286818682E190E00E94D2
:104020009C304C01FC01D786C6863182208284E414
:1040300090E09383828382E490E095838483D783A6
:10404000C683F186E0865386428615870487C401BD
:104050000E94F11BC4010E94A61EC4010E941E1EE4
:10406000E091DB01F091DC019486838680E190E0B1
:104070000E949C304C01FC01D786C6868AE990E0FC
:104080009183808384E490E093838283B582A482C9
:10409000D783C683F186E086738662861587048798
:1040A000C4010E94F11BC4010E94EC1AE091DB01E3
:1040B000F091DC019686858682E190E00E949C303A
:1040C0004C01FC01D786C68680EB90E0918380830B
:1040D00084E490E09383828335822482D783C683ED
:1040E000F186E0865386428615870487C4010E94C4
:1040F000F11BF401118A108A8091DB019091DC019F
:10410000FC01908A878621E020830E94721EE09144
:10411000DD01F091DE0187819085E091D901F09178
:10412000DA019087878381E190E00E949C304C0106
:10413000FC01D786C686B182A082D383C283B582B2
:10414000A482D783C683F186E0867386628615874C
:1041500004870E94F11BC4010E94931EC4010E94A7
:10416000831BE091D901F091DA0192868186A091BA
:10417000DB01B091DC0117968D919C919487838728
:1041800080E190E00E949C304C01FC01D786C686FD
:10419000B182A08286E690E093838283B582A48276
:1041A000D783C683F186E086738662861587048787
:1041B000C4010E94F11BC4010E94EC1AE091D901D4
:1041C000F091DA019686858682E190E00E949C302B
:1041D0004C01FC01D786C6861182108288E890E0E7
:1041E0009383828335822482D783C683F186E086D7
:1041F0005386428615870487C4010E94F11BF4018F
:10420000118A108A8091D9019091DA01FC01908A7B
:10421000878621E020830E94721EE091D701F091F1
:10422000D801A091DD01B091DE011B968D919C918A
:104230009087878381E190E00E949C304C01FC01D3
:10424000D786C6868EE690E091838083D383C2832F
:10425000B582A482D783C683F186E08673866286A0
:1042600015870487C4010E94F11BC4010E94931E9C
:10427000C4010E94831BE091D701F091D80192867E
:104280008186A091DB01B091DC011B968D919C9100
:104290009487838780E190E00E949C304C01FC0170
:1042A000D786C6868EE690E09183808386E690E08E
:1042B00093838283B582A482D783C683F186E08606
:1042C0007386628615870487C4010E94F11BC401AE
:1042D0000E94EC1AE091D701F091D801968685866C
:1042E00082E190E00E949C304C01FC01D786C6869A
:1042F0003182208288E890E0938382833582248211
:10430000D783C683F186E086538642861587048765
:10431000C4010E94F11BF401118A108A8091D70117
:104320009091D801FC01908A878621E020830E9429
:10433000721E1092F9011092F80181E190E00E9442
:104340009C304C01FC01D786C686118210828AEA15
:1043500090E093838283B582A482D783C683F1865B
:10436000E0867386628615870487C4010E94F11B6C
:104370008DE2F401808BC4010E94081B9092E00141
:104380008092DF0121EE822E21E0922E30E3332E47
:1043900006E110E056014AEAC42ED12C56E1E52E82
:1043A000F12C62E2662E712C44244A94542C81E153
:1043B00090E00E949C30EC01BF86AE861983088392
:1043C000DB82CA82FD82EC827F826E8259864886B9
:1043D0008FEE9BE79B878A87EFE1F0E0FD87EC8714
:1043E000CE010E94F11B388ACE010E94081BF40105
:1043F000C193D1934F010A5E1F4F3394FAE33F12EA
:10440000D6CF8DE0C82E81E0D82E9AEFE92E91E02C
:10441000F92E10E000E025E0A22E22E0B22E3CECC6
:10442000632E712C42E4442E512C52E2252E312C65
:1044300082E190E00E949C30EC01F6018190919025
:104440006F01BF86AE86198308837B826A825D8294
:104450004C823F822E828FEF9FEF99878887EFEE05
:10446000FBE7FB87EA878FE190E09D878C87CE0191
:104470000E94F11B998A888AEE85FF858A819B813B
:104480004B96288139813587248797878687888549
:104490009985938B828B918B808BB401CF010E9485
:1044A000CF1CF701C193D1937F010E5B1F4F063CD8
:1044B000110509F0BDCF1092F701DF91CF911F9147
:1044C0000F91FF90EF90DF90CF90BF90AF909F90B3
:1044D0008F907F906F905F904F903F902F900895B6
:1044E0001F920F920FB60F9211242F933F938F9329
:1044F0009F93AF93BF938091CE019091CF01A091F4
:10450000D001B091D1013091CD0123E0230F2D379F
:1045100058F50196A11DB11D2093CD018093CE01C8
:104520009093CF01A093D001B093D1018091D2019B
:104530009091D301A091D401B091D5010196A11D14
:10454000B11D8093D2019093D301A093D401B09375
:10455000D501BF91AF919F918F913F912F910F9076
:104560000FBE0F901F90189526E8230F0296A11DED
:10457000B11DD2CF1F920F920FB60F9211242F931D
:104580003F934F935F936F937F938F939F93AF93DB
:10459000BF93EF93FF938091B900887F803609F431
:1045A0004AC0F0F5883209F4A5C018F5803109F445
:1045B00099C0B8F4882309F4F5C0883009F492C092
:1045C000FF91EF91BF91AF919F918F917F916F91EB
:1045D0005F914F913F912F910F900FBE0F901F90C1
:1045E0001895883109F486C0803251F78093A6016E
:1045F00014C0803409F49BC040F48033B9F388338D
:10460000F9F68093A60185ECAEC0803509F483C02D
:10461000883509F494C0883499F60E94591DD0CF8A
:10462000883909F48AC038F5883729F050F488367B
:1046300011F0803729F683E08093A7011092A5013D
:1046400055C0883809F479C0803919F0803809F0EC
:10465000B7CF8091A501803208F06FC0E091A5012D
:1046600081E08E0F8093A5018091BB00F0E0EB57B5
:10467000FE4F80833BC0803B39F0D0F4803A09F490
:1046800077C0883A09F09CCF84E08093A70110920C
:10469000840110928301F0E0E0E0099580918301AC
:1046A00081110FC081E0809383011092630109C0E2
:1046B000803C09F4A8CF883C09F4A5CF883B09F0D9
:1046C0007FCFE091840181E08E0F80938401F0E040
:1046D000ED59FE4F80818093BB00909184018091C1
:1046E000830129C08091CC018093BB0085EC80932D
:1046F000BC0066CF9091CB018091CA01981758F504
:10470000E091CB0181E08E0F8093CB01F0E0E65584
:10471000FE4F8081E9CFE091CB0181E08E0F809345
:10472000CB018091BB00F0E0E655FE4F8083909175
:10473000CB018091CA019817C8F285E8D8CFE091E3
:10474000CB0181E08E0F8093CB018091BB00F0E024
:10475000E655FE4F80838091A90181115ECF81E0F3
:104760008093A80184EA8093BC001092A70128CF0F
:1047700085EC8093BC001092A7018091A501803246
:1047800030F4E091A501F0E0EB57FE4F108260910C
:10479000A50170E085E891E0F0E0E0E00995109275
:1047A000A5010ECF1092A60138CF1F920F920FB61F
:1047B0000F9211248F930FB6F894A8958091600002
:1047C000886180936000109260000FBE8F910F90FF
:1047D0000FBE0F901F9018951F920F920FB60F9259
:1047E00011248F9381E0809301028F910F900FBE6F
:1047F0000F901F901895E5E0F2E01382128220EFEF
:1048000030E03583248380E491E097838683318789
:10481000208793878287168A1586148617861686C0
:1048200081E0858B848B2FEF3FEF338B228B318B95
:10483000208B878B108E128E118E8CE191E09183EC
:1048400080830895CF93DF93CDB7DEB72C970FB653
:10485000F894DEBF0FBECDBF789484B5826084BD6E
:1048600084B5816084BD85B5826085BD85B5816074
:1048700085BD80916E00816080936E0010928100F2
:1048800080918100826080938100809181008160AD
:10489000809381008091800081608093800080916E
:1048A000B10084608093B1008091B00081608093FA
:1048B000B00080917A00846080937A0080917A00C1
:1048C000826080937A0080917A00816080937A0080
:1048D00080917A00806880937A001092C10060E035
:1048E00090E080E00E9447158C01883024E5920713
:1048F00051F1803234E5930731F18938994809F450
:104900000EC160E087E690E00E94471507E413E8D7
:1049100087349744C1F08FEE90E00E94C4158B015C
:10492000073283E9180779F081EA90E00E94A51523
:1049300003E619E1613091E6790729F06F3F7607C8
:1049400091F506E215E10E941B15109221021092CA
:10495000200210932502009324020735A3E81A07CA
:1049600009F490C508F0ABC40932E2E31E0709F46C
:1049700059C508F057C4003225E1120709F446C5AD
:1049800008F025C40939110509F47FC508F0D3C022
:1049900080E091E10130110509F491C510920A02FD
:1049A000109209025EC461157F4F19F400E215E10F
:1049B000CACF8FEB90E00E94C4158B016735E3E806
:1049C0007E0709F26138F4E97F0709F4BCCF613151
:1049D00025E1720709F4B7CF603235E1730731F38F
:1049E000663245E1740709F4ACCF6138754109F4CA
:1049F000AACF0115144109F495C084ED90E00E94FE
:104A0000A5158B01003193E5190709F49CCF87EDBB
:104A100090E00E94A5158B016133704809F493CF93
:104A20008EEF90E00E94A515072F182F292F33270E
:104A30000335B0E21B0709F486CF84E090E00E94C2
:104A4000A5158B01811123C06115704801F5809176
:104A50000A0190910B01A0910C0189839A83AB8389
:104A6000AE014F5F5F4F63E089EB90E00E948714D7
:104A700060E080ED90E00E94471509E910E0893977
:104A800009F461CF8039B9F400E910E95CCF06324E
:104A9000F5E11F0709F455CF003F29E8120709F493
:104AA00044C0023535E8130709F442C001314CEA2D
:104AB000140709F448CF83ED90E00E94A515072F55
:104AC000182F292F3327033651E9150709F43BCF57
:104AD00083ED90E00E94A5158B01093282E318074F
:104AE00009F431CF872F7359723008F42CCF8839ED
:104AF00009F429CF873709F426CF863109F423CF6B
:104B0000033D110509F41FCF033D100709F41BCF26
:104B100060E090E080E00E9447158C0114CF09E826
:104B200012E111CF04E118E60ECF05E317E70BCF32
:104B300009E817E708CF053045E1140709F4BDC4BB
:104B40000131154109F02ACF83E090E090932302D0
:104B50008093220280EE91E090930C0280930B02EE
:104B600080E491E090930A028093090243E0E42EEE
:104B7000F12C09E416E120912302822F82958F7097
:104B800090E0817099279093270280932602011567
:104B9000110581F069E070E086E394E10E9422143F
:104BA000B701C8010E94221466E070E080E394E13E
:104BB0000E94221460E085E092E00E941F1860E0ED
:104BC00085E092E00E941A1661E085E092E00E9482
:104BD0001F1870E060E085E092E00E94261B809143
:104BE0001E0290911F02892B49F48091130290912B
:104BF00014020696909314028093130282E499E1C2
:104C000090931F0280931E0281E190E00E949C30ED
:104C10008C010E94391D1093DE010093DD0181E1BA
:104C200090E00E949C308C010E94391D1093DC01A1
:104C30000093DB0181E190E00E949C308C010E9496
:104C4000391D1093DA010093D90181E190E00E94AF
:104C50009C308C010E94391D1093D8010093D7011C
:104C600080E390E00E949C30DC0188E090E01196A7
:104C70009C938E9380E190E013969C938E93129771
:104C800081E190E015969C938E93149789E090E0D3
:104C900017969C938E93169784E990E019969C93AF
:104CA0008E93189781E993E01B969C938E931A97A5
:104CB00088E993E01D969C938E931C978BE990E076
:104CC0001F969C938E931E9755961C921E925497F6
:104CD00053961C921E92529751961C921E92509778
:104CE00081E15C968C935C9780E15E968C935E97F5
:104CF00089E05D968C935D9788E05F968C935F97D3
:104D00008CE291E091969C938E939097E6E3F9E183
:104D1000E491F0E0EE0FFF1FEC5DF64E859194916B
:104D200093969C938E939297EFE3F9E1E491F0E0F0
:104D3000EE0FFF1FEC5DF64E8591949195969C9336
:104D40008E939497EEE3F9E1E491F0E0EE0FFF1F0C
:104D5000EC5DF64E8591949197969C938E939697E1
:104D6000E7E3F9E1E491F0E0EE0FFF1FEC5DF64EB2
:104D70008591949199969C938E939897E8E1F9E1A7
:104D8000E4919A96EC939A97E1E2F9E1E4919C968A
:104D9000EC939C97E0E2F9E1E4919B96EC939B976E
:104DA000E9E1F9E1E4919D96EC939D978AE090E02A
:104DB0005B969C938E935A97B0930302A093020242
:104DC0000E94B61E0091020210910302F12CE12C08
:104DD00060E0D8015C968C910E94510D60E0F80172
:104DE000858D0E94510D61E0D8015F968C910E94E3
:104DF000510D61E0F801868D0E94510DD8019A96FF
:104E00008C919A979296ED91FC9193979081892B32
:104E100080839B968C919B979696ED91FC919797AA
:104E200090818095892380835C968C910E94820D6D
:104E30006C01F801848D0E94820D9601281B390BAC
:104E40002C5F3F4F912C2930310530F48C0D9D1D86
:104E5000959587959924939466246A9463E0762EB9
:104E6000681A790A60E0D8015F968C910E94510D12
:104E700060E0F801868D0E94510D61E0D8015C96DA
:104E80008C910E94510D61E0F801858D0E94510DB9
:104E9000D8019D968C919D979896ED91FC9199974C
:104EA00090818095892380839C968C919C97949681
:104EB000ED91FC9195979081892B80835E968C91E2
:104EC0000E94820D6C01F801868D0E94820D960170
:104ED000281B390B2C5F3F4F2930310508F080C368
:104EE0008C0D9D1D959587952FEF33E0281B390B71
:104EF00038872F8361E0D8015F968C910E94510D15
:104F000060E0F801848D0E94510DD8019A968C9131
:104F10009A979296ED91FC91939790818095892331
:104F200080839D968C919D979896ED91FC91999791
:104F30009081892B80835E968C910E94820D6C01FA
:104F4000F801848D0E94820DBC01D8019096AD902D
:104F5000BC90A114B10409F445C3072E000C880BC2
:104F6000990B0E94C62D1B012C01B601DD0C880B8C
:104F7000990B0E94C62D9B01AC01C201B1010E9498
:104F8000C62F20E030E040E85FE30E94592F1B016C
:104F90002C01B301072C000C880B990B0E94C62D25
:104FA000A20191010E94012E1B012C01B50190E08C
:104FB00080E00E94C42DA20191010E94012E20E0F8
:104FC00030E040E85AE30E94012E0E9438309110F0
:104FD00002C070E060E0D80151967C926E925097CA
:104FE000EF81F8855396FC93EE93529755967C93F8
:104FF0006E93549761E014968C910E94510D61E07C
:10500000D80112968C910E94510DF801C488D58860
:10501000BB24B394F9ECCF16D1040CF4B12C2FEFD0
:10502000E21AF20AB81411F0F12CE12C65E070E0FC
:1050300080E090E00E94BC0D8B2C34E0E316F1047C
:1050400009F0C6CED8019F96BC929F979E968C91F0
:105050009E978B1509F47FC09E96BC92B9ECCB1637
:10506000D1040CF478C00E94970D69877A878B87EA
:105070009C87F801C284D3840D2C000CEE08FF0835
:1050800020893189032E000C440B550B2C193D0946
:105090004E095F09A0EFB0E00E94DE2E2085318529
:1050A000032E000C440B550B2C193D094E095F09CA
:1050B0000E94BF2E69015901D8011E964D905C9047
:1050C0001F97052C000C6608770852962D913C918D
:1050D000032E000C440B550B2419350946095709BA
:1050E000A0E4B1E00E94DE2EF80124853585032E70
:1050F000000C440B550B24193509460957090E9429
:10510000BF2E290119010091DD011091DE01A601D8
:10511000B201D8011F968D919C910E94431B882358
:1051200009F468C21092F9011092F801C8010E94B6
:10513000721C8091DD019091DE01FC012081211122
:105140000AC00E94A11B8091DD019091DE01909325
:10515000F9018093F8010E94970D29853A854B85C6
:105160005C85621B730B840B950B613E73498F4FFB
:105170009F4FE8F03898409AF894809168008260D8
:105180008093680080916C00816080936C007894BB
:10519000F89480B7806880BF789430E020E050E0D9
:1051A00040E06AE070E080E092E00E94400E809172
:1051B0000102882321F0109201020E94B61E40E0F5
:1051C00050E0452B09F4FECD0E940000FBCD0138D4
:1051D00085E1180709F4B9C180F40632154109F0D8
:1051E000DDCB83E194E090932302809322022CE0B4
:1051F000E22EF12C07E316E1BECC0230B6E11B072C
:1052000009F48BC187E194E10335104209F0C6CB64
:10521000909323028093220273E0E72EF12C0CE599
:1052200015E1A9CC0930F8E61F0709F453C140F590
:10523000003133E5130709F401C1B0F483E196E1CD
:105240000734174409F0AACB9093230280932202DB
:1052500081E08093D60160E770E080EA98E10E94E7
:10526000221410E000E087CC083084E5180709F428
:1052700024C10736174609F091CB81E094E1E4CFD1
:105280000938A7E71A0709F4F1C020F405371547D4
:10529000A1F384CB0639F7E71F0709F471C1013385
:1052A000104809F07BCB83E194E190932302809333
:1052B000220212E1E12EF12C02EA15E15CCC083366
:1052C00033E9130709F43BC108F045C0073253E93D
:1052D000150709F40AC170F5023093E9190709F4BA
:1052E0002BC1E0F483E194E10039104909F056CB79
:1052F000909323028093220280EE91E090930C021F
:1053000080930B0280E491E090930A02809309025B
:10531000B2E0EB2EF12C00EA15E12DCC0032E3E9EE
:105320001E0709F4CAC00532134909F037CB80E0E3
:1053300091E1D2C0093223E9120709F403C1B8F39D
:10534000013343E9140721F00533134909F026CB53
:1053500080E090E1C1C0093884E91807C8F5073832
:1053600094E9190708F024C10138A4E91A0709F4DF
:1053700004C190F4005413490230110508F00ECB1B
:1053800083E194E0909323028093220265E6E62E67
:10539000F12C07EF14E1EFCB0638144909F0FECAEF
:1053A00083E094E0909323028093220280EE91E0C8
:1053B00090930C0280930B0280E491E090930A0298
:1053C000809309024BE3E42EF12C07E714E1D3CBE1
:1053D0000131FCEA1F0709F4ACC028F4053915496E
:1053E00009F44BCFDBCA053045EB140721F005303B
:1053F000154C09F0D3CA88E090E190932302809382
:10540000220260EB70E08CE496E161C083E194E0FD
:10541000909323028093220236E0E32EF12C03E4E2
:1054200016E1A9CB83E096E09093230280932202B9
:1054300090E4E92EF12C07EF15E19DCB83E19EE08E
:10544000909323028093220280EE91E090930C02CD
:1054500080930B0280E491E090930A02809309020A
:1054600082E0E82EF12C05EF15E185CB83E194E095
:10547000909323028093220201E4E02EF12C04EBAE
:1054800015E179CB83E094E133CF83E194E190930C
:1054900023028093220280EE91E090930C0280938D
:1054A0000B0280E491E090930A0280930902ADE13F
:1054B000EA2EF12C03E815E15ECB84E090E19093B5
:1054C00023028093220268ED70E088EC97E10E944D
:1054D000F815C7CE82E091E19093230280932202D7
:1054E0006CEC70E08CEF96E1F2CF83E094E0909367
:1054F00023028093220280E991E090930C02809332
:105500000B0280EF90E090930A0280930902FEE183
:10551000EF2EF12C05E615E12ECB83E094E090937D
:10552000230280932202E6E0EE2EF12C0FE515E136
:1055300022CB83E194E16CCE83E094E069CE83E1F9
:1055400094E066CE83E096E163CE83E194E09093AD
:1055500023028093220280EE91E090930C028093CC
:105560000B0280E491E090930A028093090255E4D3
:10557000E52EF12C02EB14E1FECA87E094E0E7CFC0
:1055800083E094E0909323028093220280EE91E0E6
:1055900090930C0280930B0280E491E090930A02B6
:1055A000809309023DE0E32EF12C0AE614E1E3CA00
:1055B00083E194E0909323028093220280EE91E0B5
:1055C00090930C0280930B0280E491E090930A0286
:1055D000809309022BE2E22EF12C0FE314E1CBCAF7
:1055E000912C82CC6C197D09EFEFF3E0E61BF70BF1
:1055F000BF01EDCC0091DB011091DC01A601B201ED
:10560000D8011F968D919C910E94431B8823B1F075
:105610001092F9011092F801C8010E94721C809149
:10562000DB019091DC01FC012081211194CD0E94CD
:10563000A11B8091DB019091DC0189CD0091D90102
:105640001091DA01A601B201D8011F968D919C91AB
:105650000E94431B8823B1F01092F9011092F801C7
:10566000C8010E94721C8091D9019091DA01FC015D
:105670002081211170CD0E94A11B8091D9019091B0
:10568000DA0165CD0091D7011091D801A601B201D0
:10569000D8011F968D919C910E94431B982E8823C0
:1056A000B1F01092F9011092F801C8010E94721C29
:1056B0008091D7019091D801FC01208121114BCD1F
:1056C0000E94A11B8091D7019091D80140CD21EE7D
:1056D00031E038872F8301E010E0A501B101AF81EF
:1056E000B8858D919D91B887AF830E94431B882315
:1056F00009F44FC04FE2B42EB00E0091F8011091A2
:10570000F9010115110509F426CDF80180818111F7
:1057100022CD68E176EC878590890E945F1BF2E6D6
:10572000BF1609F47FC025E6D801B212B2C01F9699
:10573000ED90FC90509711968D919C91009709F4F3
:1057400062C00E94882D6B01F701718B608B809184
:10575000F701811107C0C8010E942D1CC816D90687
:1057600009F055C060EE77E0C7010E945F1BE3E0DF
:10577000D801EC931F96ED90FC90C8010E942D1C5F
:10578000D70151969C938E935097C7010E94CE1DCE
:10579000E2CC0F5F1F4F0B30110509F09ECFA60121
:1057A000B2018091DF019091E0010E94431B8111C1
:1057B00024C0A601B2018091FA019091FB010E94E0
:1057C000431B81111DC0A601B2018091FC01909183
:1057D000FD010E94431B32E6B32E81118ECFA6013C
:1057E000B2018091FE019091FF010E94431B88232A
:1057F00009F4B1CC0E94B61EAECC2DE2B22E7DCF04
:1058000095E6B92E7ACF60E070E0CB019CCF60E0E6
:1058100078EFC7010E945F1B22E0F8012083878593
:105820009089B4CFD80115966D917C916115710561
:1058300009F491CC61507109C80101960E945F1C66
:10584000F801E580F680E114F10409F0A5C01982A1
:10585000F801A785B0891E96ED91FC911F971296CD
:105860008D919C9113974B962D913C911197358773
:1058700024879787868718968D919C91938B828B2E
:10588000918B808BBE016F5F7F4FCF010E94CF1C39
:1058900062CC1596ED90FC90BFEFEB1AFB0A680105
:1058A000EFEFCE1ADE0AF5E0EF16F104D0F4B9827C
:1058B0001A82B701C6010E94E61C882391F0D80124
:1058C00011962D913C91129715968D919C91BE0148
:1058D0006F5F7F4F820F931F0E949532F801F6820F
:1058E000E5821A8219821C821B821E821D8243E07D
:1058F00050E06CE471E0CE0101960E940E1DD801CB
:1059000015962D913C9116978D819E81E980FA80A4
:1059100028173907F1F411968D919C91009749F061
:10592000E114F10491F5232BA1F1DC018C9190E0BD
:105930000BC0E114F10469F1232B59F1F7018081C7
:1059400090E091958195910999249394892B09F080
:10595000912CE114F10419F0C7010E94383199200B
:1059600009F46ECFFF24F394F092F70160EA7DEF23
:10597000F801878590890E945F1B70E060E0C60196
:105980000E945F1CD801FC92E6CBB7010E948C32CA
:10599000DBCF99249394DDCFF4E0EF16F10418F0F7
:1059A00084E0E82EF12CD80111966D917C91A7012D
:1059B000CE0101960E949C32E1E0F0E0EC0FFD1F69
:1059C000EE0DFF1D108244CF8F929F92AF92BF9237
:1059D000CF92DF92EF92FF92CF93DF93EC01688139
:1059E00079818A819B81611571058105910521F479
:1059F00064E279ED8BE597E02DE133EF41E050E093
:105A00000E94BF2E49015A019B01AC01A7EAB1E4F3
:105A10000E94DE2E6B017C01ACEEB4EFA501940177
:105A20000E94EC2EC60ED71EE81EF91EF7FE06C019
:105A300081E0C81AD108E10880E8F80AC882D98252
:105A4000EA82FB82C701B6019F77DF91CF91FF9079
:105A5000EF90DF90CF90BF90AF909F908F90089580
:105A60008F929F92AF92BF92CF92DF92EF92FF926E
:105A700060910001709101018091020190910301F8
:105A8000611571058105910521F464E279ED8BE5DD
:105A900097E02DE133EF41E050E00E94BF2E490135
:105AA0005A019B01AC01A7EAB1E40E94DE2E6B0112
:105AB0007C01ACEEB4EFA50194010E94EC2EC60E61
:105AC000D71EE81EF91EF7FE06C081E0C81AD108ED
:105AD000E10880E8F80AC0920001D0920101E0924A
